{
  "contractName": "Wallet",
  "abi": [
    {
      "inputs": [
        {
          "internalType": "address[]",
          "name": "_owners",
          "type": "address[]"
        }
      ],
      "stateMutability": "nonpayable",
      "type": "constructor"
    },
    {
      "anonymous": false,
      "inputs": [
        {
          "indexed": true,
          "internalType": "address",
          "name": "owner",
          "type": "address"
        },
        {
          "indexed": true,
          "internalType": "uint256",
          "name": "txIndex",
          "type": "uint256"
        }
      ],
      "name": "ConfirmTransaction",
      "type": "event"
    },
    {
      "anonymous": false,
      "inputs": [
        {
          "indexed": true,
          "internalType": "address",
          "name": "sender",
          "type": "address"
        },
        {
          "indexed": false,
          "internalType": "uint256",
          "name": "amount",
          "type": "uint256"
        },
        {
          "indexed": false,
          "internalType": "uint256",
          "name": "balance",
          "type": "uint256"
        }
      ],
      "name": "Deposit",
      "type": "event"
    },
    {
      "anonymous": false,
      "inputs": [
        {
          "indexed": true,
          "internalType": "address",
          "name": "owner",
          "type": "address"
        },
        {
          "indexed": true,
          "internalType": "uint256",
          "name": "txIndex",
          "type": "uint256"
        }
      ],
      "name": "ExecuteTransaction",
      "type": "event"
    },
    {
      "anonymous": false,
      "inputs": [
        {
          "indexed": true,
          "internalType": "address",
          "name": "owner",
          "type": "address"
        },
        {
          "indexed": true,
          "internalType": "uint256",
          "name": "txIndex",
          "type": "uint256"
        }
      ],
      "name": "RevokeConfirmation",
      "type": "event"
    },
    {
      "anonymous": false,
      "inputs": [
        {
          "indexed": true,
          "internalType": "address",
          "name": "owner",
          "type": "address"
        },
        {
          "indexed": true,
          "internalType": "uint256",
          "name": "txIndex",
          "type": "uint256"
        },
        {
          "indexed": true,
          "internalType": "address",
          "name": "to",
          "type": "address"
        },
        {
          "indexed": false,
          "internalType": "uint256",
          "name": "value",
          "type": "uint256"
        },
        {
          "indexed": false,
          "internalType": "bytes",
          "name": "data",
          "type": "bytes"
        }
      ],
      "name": "SubmitTransaction",
      "type": "event"
    },
    {
      "inputs": [
        {
          "internalType": "address",
          "name": "",
          "type": "address"
        }
      ],
      "name": "isOwner",
      "outputs": [
        {
          "internalType": "bool",
          "name": "",
          "type": "bool"
        }
      ],
      "stateMutability": "view",
      "type": "function"
    },
    {
      "inputs": [
        {
          "internalType": "uint256",
          "name": "",
          "type": "uint256"
        }
      ],
      "name": "owners",
      "outputs": [
        {
          "internalType": "address",
          "name": "",
          "type": "address"
        }
      ],
      "stateMutability": "view",
      "type": "function"
    },
    {
      "stateMutability": "payable",
      "type": "receive"
    },
    {
      "inputs": [
        {
          "internalType": "address",
          "name": "_to",
          "type": "address"
        },
        {
          "internalType": "uint256",
          "name": "_value",
          "type": "uint256"
        },
        {
          "internalType": "bytes",
          "name": "_data",
          "type": "bytes"
        }
      ],
      "name": "proposeTransaction",
      "outputs": [],
      "stateMutability": "nonpayable",
      "type": "function"
    },
    {
      "inputs": [
        {
          "internalType": "uint256",
          "name": "_txIndex",
          "type": "uint256"
        }
      ],
      "name": "approveTransaction",
      "outputs": [],
      "stateMutability": "nonpayable",
      "type": "function"
    },
    {
      "inputs": [
        {
          "internalType": "uint256",
          "name": "_txIndex",
          "type": "uint256"
        }
      ],
      "name": "executeTransaction",
      "outputs": [],
      "stateMutability": "nonpayable",
      "type": "function"
    },
    {
      "inputs": [
        {
          "internalType": "uint256",
          "name": "_txIndex",
          "type": "uint256"
        }
      ],
      "name": "revokeConfirmation",
      "outputs": [],
      "stateMutability": "nonpayable",
      "type": "function"
    },
    {
      "inputs": [],
      "name": "getTransactionCount",
      "outputs": [
        {
          "internalType": "uint256",
          "name": "",
          "type": "uint256"
        }
      ],
      "stateMutability": "view",
      "type": "function"
    },
    {
      "inputs": [
        {
          "internalType": "uint256",
          "name": "_txIndex",
          "type": "uint256"
        }
      ],
      "name": "getTransactionDetails",
      "outputs": [
        {
          "internalType": "address",
          "name": "to",
          "type": "address"
        },
        {
          "internalType": "uint256",
          "name": "value",
          "type": "uint256"
        },
        {
          "internalType": "bytes",
          "name": "data",
          "type": "bytes"
        },
        {
          "internalType": "bool",
          "name": "executed",
          "type": "bool"
        },
        {
          "internalType": "uint256",
          "name": "Approvals",
          "type": "uint256"
        }
      ],
      "stateMutability": "view",
      "type": "function"
    }
  ],
  "bytecode": "0x60806040523480156200001157600080fd5b506040516200223b3803806200223b83398181016040528101906200003791906200051a565b336000806101000a81548173ffffffffffffffffffffffffffffffffffffffff021916908373ffffffffffffffffffffffffffffffffffffffff1602179055506001815111620000be576040517f08c379a0000000000000000000000000000000000000000000000000000000008152600401620000b590620005cc565b60405180910390fd5b60005b8151811015620002c1576000828281518110620000e357620000e2620005ee565b5b60200260200101519050600073ffffffffffffffffffffffffffffffffffffffff168173ffffffffffffffffffffffffffffffffffffffff16036200015f576040517f08c379a000000000000000000000000000000000000000000000000000000000815260040162000156906200066d565b60405180910390fd5b600260008273ffffffffffffffffffffffffffffffffffffffff1673ffffffffffffffffffffffffffffffffffffffff16815260200190815260200160002060009054906101000a900460ff1615620001ef576040517f08c379a0000000000000000000000000000000000000000000000000000000008152600401620001e690620006df565b60405180910390fd5b6001600260008373ffffffffffffffffffffffffffffffffffffffff1673ffffffffffffffffffffffffffffffffffffffff16815260200190815260200160002060006101000a81548160ff0219169083151502179055506001819080600181540180825580915050600190039060005260206000200160009091909190916101000a81548173ffffffffffffffffffffffffffffffffffffffff021916908373ffffffffffffffffffffffffffffffffffffffff160217905550508080620002b8906200073a565b915050620000c1565b50603c600481905550620002da6200030860201b60201c565b506064600654600454620002ef919062000787565b620002fb919062000817565b600381905550506200084f565b6000600a6001805490506200031e919062000787565b600681905550600654905090565b6000604051905090565b600080fd5b600080fd5b600080fd5b6000601f19601f8301169050919050565b7f4e487b7100000000000000000000000000000000000000000000000000000000600052604160045260246000fd5b620003908262000345565b810181811067ffffffffffffffff82111715620003b257620003b162000356565b5b80604052505050565b6000620003c76200032c565b9050620003d5828262000385565b919050565b600067ffffffffffffffff821115620003f857620003f762000356565b5b602082029050602081019050919050565b600080fd5b600073ffffffffffffffffffffffffffffffffffffffff82169050919050565b60006200043b826200040e565b9050919050565b6200044d816200042e565b81146200045957600080fd5b50565b6000815190506200046d8162000442565b92915050565b60006200048a6200048484620003da565b620003bb565b90508083825260208201905060208402830185811115620004b057620004af62000409565b5b835b81811015620004dd5780620004c888826200045c565b845260208401935050602081019050620004b2565b5050509392505050565b600082601f830112620004ff57620004fe62000340565b5b81516200051184826020860162000473565b91505092915050565b60006020828403121562000533576200053262000336565b5b600082015167ffffffffffffffff8111156200055457620005536200033b565b5b6200056284828501620004e7565b91505092915050565b600082825260208201905092915050565b7f6f776e6572732072657175697265640000000000000000000000000000000000600082015250565b6000620005b4600f836200056b565b9150620005c1826200057c565b602082019050919050565b60006020820190508181036000830152620005e781620005a5565b9050919050565b7f4e487b7100000000000000000000000000000000000000000000000000000000600052603260045260246000fd5b7f696e76616c6964206f776e657200000000000000000000000000000000000000600082015250565b600062000655600d836200056b565b915062000662826200061d565b602082019050919050565b60006020820190508181036000830152620006888162000646565b9050919050565b7f6f776e6572206e6f7420756e6971756500000000000000000000000000000000600082015250565b6000620006c76010836200056b565b9150620006d4826200068f565b602082019050919050565b60006020820190508181036000830152620006fa81620006b8565b9050919050565b7f4e487b7100000000000000000000000000000000000000000000000000000000600052601160045260246000fd5b6000819050919050565b6000620007478262000730565b91507fffffffffffffffffffffffffffffffffffffffffffffffffffffffffffffffff82036200077c576200077b62000701565b5b600182019050919050565b6000620007948262000730565b9150620007a18362000730565b9250817fffffffffffffffffffffffffffffffffffffffffffffffffffffffffffffffff0483118215151615620007dd57620007dc62000701565b5b828202905092915050565b7f4e487b7100000000000000000000000000000000000000000000000000000000600052601260045260246000fd5b6000620008248262000730565b9150620008318362000730565b925082620008445762000843620007e8565b5b828204905092915050565b6119dc806200085f6000396000f3fe60806040526004361061007f5760003560e01c80632e7700f01161004e5780632e7700f0146101ab5780632f54bf6e146101d65780635e90852d14610213578063ee22610b1461023c576100d6565b8063025e7c27146100db5780630fa683d31461011857806320ea8d8614610159578063242232d114610182576100d6565b366100d6573373ffffffffffffffffffffffffffffffffffffffff167f90890809c654f11d6e72a28fa60149770a0d11ec6c92319d6ceb2bb0a4ea1a1534476040516100cc929190610fc0565b60405180910390a2005b600080fd5b3480156100e757600080fd5b5061010260048036038101906100fd9190611029565b610265565b60405161010f9190611097565b60405180910390f35b34801561012457600080fd5b5061013f600480360381019061013a9190611029565b6102a4565b604051610150959493929190611166565b60405180910390f35b34801561016557600080fd5b50610180600480360381019061017b9190611029565b6103b7565b005b34801561018e57600080fd5b506101a960048036038101906101a49190611029565b610691565b005b3480156101b757600080fd5b506101c06109c8565b6040516101cd91906111c0565b60405180910390f35b3480156101e257600080fd5b506101fd60048036038101906101f89190611207565b6109d5565b60405161020a9190611234565b60405180910390f35b34801561021f57600080fd5b5061023a60048036038101906102359190611384565b6109f5565b005b34801561024857600080fd5b50610263600480360381019061025e9190611029565b610c40565b005b6001818154811061027557600080fd5b906000526020600020016000915054906101000a900473ffffffffffffffffffffffffffffffffffffffff1681565b60008060606000806000600887815481106102c2576102c16113f3565b5b906000526020600020906005020190508060000160009054906101000a900473ffffffffffffffffffffffffffffffffffffffff168160010154826002018360030160009054906101000a900460ff16846004015482805461032390611451565b80601f016020809104026020016040519081016040528092919081815260200182805461034f90611451565b801561039c5780601f106103715761010080835404028352916020019161039c565b820191906000526020600020905b81548152906001019060200180831161037f57829003601f168201915b50505050509250955095509550955095505091939590929450565b600260003373ffffffffffffffffffffffffffffffffffffffff1673ffffffffffffffffffffffffffffffffffffffff16815260200190815260200160002060009054906101000a900460ff16610443576040517f08c379a000000000000000000000000000000000000000000000000000000000815260040161043a906114df565b60405180910390fd5b80600880549050811061048b576040517f08c379a00000000000000000000000000000000000000000000000000000000081526004016104829061154b565b60405180910390fd5b81600881815481106104a05761049f6113f3565b5b906000526020600020906005020160030160009054906101000a900460ff16156104ff576040517f08c379a00000000000000000000000000000000000000000000000000000000081526004016104f6906115b7565b60405180910390fd5b600060088481548110610515576105146113f3565b5b906000526020600020906005020190506007600085815260200190815260200160002060003373ffffffffffffffffffffffffffffffffffffffff1673ffffffffffffffffffffffffffffffffffffffff16815260200190815260200160002060009054906101000a900460ff166105c2576040517f08c379a00000000000000000000000000000000000000000000000000000000081526004016105b990611623565b60405180910390fd5b60018160040160008282546105d79190611672565b9250508190555060006007600086815260200190815260200160002060003373ffffffffffffffffffffffffffffffffffffffff1673ffffffffffffffffffffffffffffffffffffffff16815260200190815260200160002060006101000a81548160ff021916908315150217905550833373ffffffffffffffffffffffffffffffffffffffff167ff0dca620e2e81f7841d07bcc105e1704fb01475b278a9d4c236e1c62945edd5560405160405180910390a350505050565b600260003373ffffffffffffffffffffffffffffffffffffffff1673ffffffffffffffffffffffffffffffffffffffff16815260200190815260200160002060009054906101000a900460ff1661071d576040517f08c379a0000000000000000000000000000000000000000000000000000000008152600401610714906114df565b60405180910390fd5b806008805490508110610765576040517f08c379a000000000000000000000000000000000000000000000000000000000815260040161075c9061154b565b60405180910390fd5b816008818154811061077a576107796113f3565b5b906000526020600020906005020160030160009054906101000a900460ff16156107d9576040517f08c379a00000000000000000000000000000000000000000000000000000000081526004016107d0906115b7565b60405180910390fd5b826007600082815260200190815260200160002060003373ffffffffffffffffffffffffffffffffffffffff1673ffffffffffffffffffffffffffffffffffffffff16815260200190815260200160002060009054906101000a900460ff1615610878576040517f08c379a000000000000000000000000000000000000000000000000000000000815260040161086f906116f2565b60405180910390fd5b600560009054906101000a900473ffffffffffffffffffffffffffffffffffffffff1673ffffffffffffffffffffffffffffffffffffffff163373ffffffffffffffffffffffffffffffffffffffff16036108d257600080fd5b6000600885815481106108e8576108e76113f3565b5b90600052602060002090600502019050600181600401600082825461090d9190611712565b9250508190555060016007600087815260200190815260200160002060003373ffffffffffffffffffffffffffffffffffffffff1673ffffffffffffffffffffffffffffffffffffffff16815260200190815260200160002060006101000a81548160ff021916908315150217905550843373ffffffffffffffffffffffffffffffffffffffff167f5cbe105e36805f7820e291f799d5794ff948af2a5f664e580382defb6339004160405160405180910390a35050505050565b6000600880549050905090565b60026020528060005260406000206000915054906101000a900460ff1681565b600260003373ffffffffffffffffffffffffffffffffffffffff1673ffffffffffffffffffffffffffffffffffffffff16815260200190815260200160002060009054906101000a900460ff16610a81576040517f08c379a0000000000000000000000000000000000000000000000000000000008152600401610a78906114df565b60405180910390fd5b6000600880549050905033600560006101000a81548173ffffffffffffffffffffffffffffffffffffffff021916908373ffffffffffffffffffffffffffffffffffffffff16021790555060086040518060a001604052808673ffffffffffffffffffffffffffffffffffffffff1681526020018581526020018481526020016000151581526020016000815250908060018154018082558091505060019003906000526020600020906005020160009091909190915060008201518160000160006101000a81548173ffffffffffffffffffffffffffffffffffffffff021916908373ffffffffffffffffffffffffffffffffffffffff160217905550602082015181600101556040820151816002019080519060200190610ba5929190610f04565b5060608201518160030160006101000a81548160ff0219169083151502179055506080820151816004015550508373ffffffffffffffffffffffffffffffffffffffff16813373ffffffffffffffffffffffffffffffffffffffff167fd5a05bf70715ad82a09a756320284a1b54c9ff74cd0f8cce6219e79b563fe59d8686604051610c32929190611768565b60405180910390a450505050565b600560009054906101000a900473ffffffffffffffffffffffffffffffffffffffff1673ffffffffffffffffffffffffffffffffffffffff163373ffffffffffffffffffffffffffffffffffffffff1614610cd0576040517f08c379a0000000000000000000000000000000000000000000000000000000008152600401610cc79061180a565b60405180910390fd5b806008805490508110610d18576040517f08c379a0000000000000000000000000000000000000000000000000000000008152600401610d0f9061154b565b60405180910390fd5b8160088181548110610d2d57610d2c6113f3565b5b906000526020600020906005020160030160009054906101000a900460ff1615610d8c576040517f08c379a0000000000000000000000000000000000000000000000000000000008152600401610d83906115b7565b60405180910390fd5b600060088481548110610da257610da16113f3565b5b90600052602060002090600502019050600354600a8260040154610dc6919061182a565b1015610e07576040517f08c379a0000000000000000000000000000000000000000000000000000000008152600401610dfe906118d0565b60405180910390fd5b60018160030160006101000a81548160ff0219169083151502179055508060000160009054906101000a900473ffffffffffffffffffffffffffffffffffffffff1673ffffffffffffffffffffffffffffffffffffffff16816001015482600201604051610e75919061198f565b60006040518083038185875af1925050503d8060008114610eb2576040519150601f19603f3d011682016040523d82523d6000602084013e610eb7565b606091505b505050833373ffffffffffffffffffffffffffffffffffffffff167f5445f318f4f5fcfb66592e68e0cc5822aa15664039bd5f0ffde24c5a8142b1ac60405160405180910390a350505050565b828054610f1090611451565b90600052602060002090601f016020900481019282610f325760008555610f79565b82601f10610f4b57805160ff1916838001178555610f79565b82800160010185558215610f79579182015b82811115610f78578251825591602001919060010190610f5d565b5b509050610f869190610f8a565b5090565b5b80821115610fa3576000816000905550600101610f8b565b5090565b6000819050919050565b610fba81610fa7565b82525050565b6000604082019050610fd56000830185610fb1565b610fe26020830184610fb1565b9392505050565b6000604051905090565b600080fd5b600080fd5b61100681610fa7565b811461101157600080fd5b50565b60008135905061102381610ffd565b92915050565b60006020828403121561103f5761103e610ff3565b5b600061104d84828501611014565b91505092915050565b600073ffffffffffffffffffffffffffffffffffffffff82169050919050565b600061108182611056565b9050919050565b61109181611076565b82525050565b60006020820190506110ac6000830184611088565b92915050565b600081519050919050565b600082825260208201905092915050565b60005b838110156110ec5780820151818401526020810190506110d1565b838111156110fb576000848401525b50505050565b6000601f19601f8301169050919050565b600061111d826110b2565b61112781856110bd565b93506111378185602086016110ce565b61114081611101565b840191505092915050565b60008115159050919050565b6111608161114b565b82525050565b600060a08201905061117b6000830188611088565b6111886020830187610fb1565b818103604083015261119a8186611112565b90506111a96060830185611157565b6111b66080830184610fb1565b9695505050505050565b60006020820190506111d56000830184610fb1565b92915050565b6111e481611076565b81146111ef57600080fd5b50565b600081359050611201816111db565b92915050565b60006020828403121561121d5761121c610ff3565b5b600061122b848285016111f2565b91505092915050565b60006020820190506112496000830184611157565b92915050565b600080fd5b600080fd5b7f4e487b7100000000000000000000000000000000000000000000000000000000600052604160045260246000fd5b61129182611101565b810181811067ffffffffffffffff821117156112b0576112af611259565b5b80604052505050565b60006112c3610fe9565b90506112cf8282611288565b919050565b600067ffffffffffffffff8211156112ef576112ee611259565b5b6112f882611101565b9050602081019050919050565b82818337600083830152505050565b6000611327611322846112d4565b6112b9565b90508281526020810184848401111561134357611342611254565b5b61134e848285611305565b509392505050565b600082601f83011261136b5761136a61124f565b5b813561137b848260208601611314565b91505092915050565b60008060006060848603121561139d5761139c610ff3565b5b60006113ab868287016111f2565b93505060206113bc86828701611014565b925050604084013567ffffffffffffffff8111156113dd576113dc610ff8565b5b6113e986828701611356565b9150509250925092565b7f4e487b7100000000000000000000000000000000000000000000000000000000600052603260045260246000fd5b7f4e487b7100000000000000000000000000000000000000000000000000000000600052602260045260246000fd5b6000600282049050600182168061146957607f821691505b60208210810361147c5761147b611422565b5b50919050565b600082825260208201905092915050565b7f6e6f74206f776e65720000000000000000000000000000000000000000000000600082015250565b60006114c9600983611482565b91506114d482611493565b602082019050919050565b600060208201905081810360008301526114f8816114bc565b9050919050565b7f747820646f6573206e6f74206578697374000000000000000000000000000000600082015250565b6000611535601183611482565b9150611540826114ff565b602082019050919050565b6000602082019050818103600083015261156481611528565b9050919050565b7f747820616c726561647920657865637574656400000000000000000000000000600082015250565b60006115a1601383611482565b91506115ac8261156b565b602082019050919050565b600060208201905081810360008301526115d081611594565b9050919050565b7f7472616e73616374696f6e206e6f7420636f6e6669726d656400000000000000600082015250565b600061160d601983611482565b9150611618826115d7565b602082019050919050565b6000602082019050818103600083015261163c81611600565b9050919050565b7f4e487b7100000000000000000000000000000000000000000000000000000000600052601160045260246000fd5b600061167d82610fa7565b915061168883610fa7565b92508282101561169b5761169a611643565b5b828203905092915050565b7f747820616c726561647920636f6e6669726d6564000000000000000000000000600082015250565b60006116dc601483611482565b91506116e7826116a6565b602082019050919050565b6000602082019050818103600083015261170b816116cf565b9050919050565b600061171d82610fa7565b915061172883610fa7565b9250827fffffffffffffffffffffffffffffffffffffffffffffffffffffffffffffffff0382111561175d5761175c611643565b5b828201905092915050565b600060408201905061177d6000830185610fb1565b818103602083015261178f8184611112565b90509392505050565b7f4f6e6c79207472616e73616374696f6e2050726f706f7365722063616e20636160008201527f6c6c2066756e6374696f6e000000000000000000000000000000000000000000602082015250565b60006117f4602b83611482565b91506117ff82611798565b604082019050919050565b60006020820190508181036000830152611823816117e7565b9050919050565b600061183582610fa7565b915061184083610fa7565b9250817fffffffffffffffffffffffffffffffffffffffffffffffffffffffffffffffff048311821515161561187957611878611643565b5b828202905092915050565b7f63616e6e6f742065786563757465207472616e73616374696f6e000000000000600082015250565b60006118ba601a83611482565b91506118c582611884565b602082019050919050565b600060208201905081810360008301526118e9816118ad565b9050919050565b600081905092915050565b60008190508160005260206000209050919050565b6000815461191d81611451565b61192781866118f0565b94506001821660008114611942576001811461195357611986565b60ff19831686528186019350611986565b61195c856118fb565b60005b8381101561197e5781548189015260018201915060208101905061195f565b838801955050505b50505092915050565b600061199b8284611910565b91508190509291505056fea26469706673582212202773405ae2f1a393a47c352fab2287787c20a17c789de3c490a301ab79adf17264736f6c634300080d0033",
  "immutableReferences": {},
  "source": "// SPDX-License-Identifier: MIT\r\npragma solidity ^0.8.0;\r\n\r\ncontract Wallet {\r\n\r\n\r\n    // These events will be emited when various functions are called\r\n\r\n    event Deposit(address indexed sender, uint amount, uint balance);\r\n    event SubmitTransaction(\r\n        address indexed owner,\r\n        uint indexed txIndex,\r\n        address indexed to,\r\n        uint value,\r\n        bytes data\r\n    );\r\n    event ConfirmTransaction(address indexed owner, uint indexed txIndex);\r\n    event RevokeConfirmation(address indexed owner, uint indexed txIndex);\r\n    event ExecuteTransaction(address indexed owner, uint indexed txIndex);\r\n\r\n    address private administrator;              //These is the administrator of the contract\r\n    address[] public owners;                  //An array of all owners \r\n    mapping(address => bool) public isOwner;    //A mapping to verify the status of an address as an owner\r\n    uint private requiredApprovals;            // Number of required approvals for a transaction to be executed\r\n    uint private requiredApprovalPercentage;   // Percentage of required approvals set by administrator\r\n    address private transactionProposer;       // This stores the address of the last owner to propose a transaction\r\n    uint private totalOwners;                  // This stores the lenght of the owner array multiplied by 10 to account for arithmetic float points\r\n \r\n    \r\n    // A struct containing the details of every proposed transaction\r\n    struct Transaction {\r\n        address to;\r\n        uint value;\r\n        bytes data;\r\n        bool executed;\r\n        uint Approvals;\r\n    }\r\n\r\n    // mapping from tx index => owner => bool\r\n    mapping(uint => mapping(address => bool)) private isApproved;\r\n\r\n    // An array of the Transaction structs\r\n    Transaction[] private transactions;\r\n\r\n    // Modifier to check if sender of function is an owner\r\n    modifier onlyOwners() {\r\n        require(isOwner[msg.sender], \"not owner\");\r\n        _;\r\n    }\r\n\r\n    // Modifier to check if the sender of the function is the administrator\r\n    modifier onlyAdministrator () {\r\n        require(msg.sender == administrator, \"Only administrator can call this function\");\r\n        _;\r\n    }\r\n\r\n    // Modition to check if the transaction index exists\r\n    modifier transactionProposed(uint _txIndex) {\r\n        require(_txIndex < transactions.length, \"tx does not exist\");\r\n        _;\r\n    }\r\n\r\n    // Modifier to check is the transaction has been precviously executed\r\n    modifier TransactionNotExecuted(uint _txIndex) {\r\n        require(!transactions[_txIndex].executed, \"tx already executed\");\r\n        _;\r\n    }\r\n\r\n    //  Modifier to check is the transaction has been previously approved by msg.sender\r\n    modifier TransactionNotSigned(uint _txIndex) {\r\n        require(!isApproved[_txIndex][msg.sender], \"tx already confirmed\");\r\n        _;\r\n    }\r\n\r\n    // Modition to check if the sender of the function is the same as the contract proposer\r\n    modifier onlyTransactionProposer() {\r\n        require(msg.sender == transactionProposer, \"Only transaction Proposer can call function\");\r\n        _;\r\n    }\r\n\r\n\r\n\r\n    // Constructor sets the msg.sender as the contract administrator upon deployment\r\n    // Takes an input of addresses that are passed into the owners array\r\n    // At least two addresses must be passed into the owners array\r\n    // The number of required Approvals is set to 60% of the lenght of owners array and multiplied by 10 to cover for arithmetic float points\r\n\r\n    constructor(address[] memory _owners) {\r\n        administrator = msg.sender;\r\n        \r\n\r\n        require(_owners.length > 1, \"owners required\");\r\n        \r\n\r\n        for (uint i = 0; i < _owners.length; i++) {\r\n            address owner = _owners[i];\r\n\r\n            require(owner != address(0), \"invalid owner\");\r\n            require(!isOwner[owner], \"owner not unique\");\r\n\r\n            isOwner[owner] = true;\r\n            owners.push(owner);\r\n        }\r\n        requiredApprovalPercentage = 60;\r\n\r\n        TotalOwners();\r\n\r\n        requiredApprovals = ((requiredApprovalPercentage * totalOwners) / 100);\r\n\r\n\r\n        \r\n    }\r\n\r\n    // External function that can be called to deposit\r\n    // Emits the Deposit event\r\n    receive() external payable {\r\n        emit Deposit(msg.sender, msg.value, address(this).balance);\r\n    }\r\n\r\n    // Function that allows owners to propose transactions\r\n    // Stores the address of the transaction proposer into a state variable\r\n    // Emits the SubmitTransaction event\r\n    function proposeTransaction(\r\n        address _to,\r\n        uint _value,\r\n        bytes memory _data\r\n    ) public onlyOwners {\r\n        uint txIndex = transactions.length;\r\n\r\n        transactionProposer = msg.sender;\r\n    \r\n\r\n        transactions.push(\r\n            Transaction({\r\n                to: _to,\r\n                value: _value,\r\n                data: _data,\r\n                executed: false,\r\n                Approvals: 0\r\n            })\r\n        );\r\n\r\n       \r\n        emit SubmitTransaction(msg.sender, txIndex, _to, _value, _data);\r\n    }\r\n    \r\n\r\n    // Function that allows owners to approve a transaction \r\n    // Requires that the transaction proposer cannot approve the transaction\r\n    // Passes the transaction details into the Transaction struct, and stored into the Transaction array with a transaction index\r\n    // Emits the ConfirmTransaction event\r\n    function approveTransaction(uint _txIndex)\r\n        public\r\n        onlyOwners\r\n        transactionProposed(_txIndex)\r\n        TransactionNotExecuted(_txIndex)\r\n        TransactionNotSigned(_txIndex)\r\n    {\r\n        require(msg.sender != transactionProposer );\r\n\r\n        Transaction storage transaction = transactions[_txIndex];\r\n        transaction.Approvals += 1;\r\n        isApproved[_txIndex][msg.sender] = true;\r\n\r\n        emit ConfirmTransaction(msg.sender, _txIndex);\r\n    }\r\n\r\n    // Function allows the proposer of the transaction to execute the transaction\r\n    // Requires that the transaction approval is equal or greater than the required approvals\r\n    // Only the contract proposer can call the function\r\n    // Emits the ExecuteTransaction events\r\n    function executeTransaction(uint _txIndex)\r\n        public\r\n        onlyTransactionProposer\r\n        transactionProposed(_txIndex)\r\n        TransactionNotExecuted(_txIndex)\r\n    {\r\n        Transaction storage transaction = transactions[_txIndex];\r\n\r\n        require(\r\n            (transaction.Approvals * 10) >= requiredApprovals,\r\n            \"cannot execute transaction\"\r\n        );\r\n\r\n        transaction.executed = true;\r\n\r\n        transaction.to.call{value: transaction.value}(\r\n            transaction.data\r\n        );\r\n       \r\n\r\n        emit ExecuteTransaction(msg.sender, _txIndex);\r\n    }\r\n\r\n    // Function allows a owner to revoke their confirmation on a transaction\r\n    // Requires that the owner has previously apporved the transaction\r\n    // Emits the RevokeTransaction event\r\n    function revokeConfirmation(uint _txIndex)\r\n        public\r\n        onlyOwners\r\n        transactionProposed(_txIndex)\r\n        TransactionNotExecuted(_txIndex)\r\n    {\r\n        Transaction storage transaction = transactions[_txIndex];\r\n\r\n        require(isApproved[_txIndex][msg.sender], \"transaction not confirmed\");\r\n\r\n        transaction.Approvals -= 1;\r\n        isApproved[_txIndex][msg.sender] = false;\r\n\r\n        emit RevokeConfirmation(msg.sender, _txIndex);\r\n    }\r\n\r\n    // Public function to view the total number of transactions\r\n    function getTransactionCount() public view returns (uint) {\r\n        return transactions.length;\r\n    }\r\n\r\n    // Public function to view the detials of a transaction via its index\r\n    function getTransactionDetails(uint _txIndex)\r\n        public\r\n        view\r\n        returns (\r\n            address to,\r\n            uint value,\r\n            bytes memory data,\r\n            bool executed,\r\n            uint Approvals\r\n        )\r\n    {\r\n        Transaction storage transaction = transactions[_txIndex];\r\n\r\n        return (\r\n            transaction.to,\r\n            transaction.value,\r\n            transaction.data,\r\n            transaction.executed,\r\n            transaction.Approvals\r\n        );\r\n    }\r\n\r\n    // Function to a new a owner to the array of owners\r\n    function addOwner(address _newOwner) private onlyAdministrator {\r\n          owners.push(_newOwner);\r\n          TotalOwners();\r\n          requiredApprovals = ((requiredApprovalPercentage * totalOwners) / 100);\r\n\r\n\r\n    }\r\n\r\n    // Function to remove a owner from the array of owners\r\n    function removeOwner(uint _ownerId) private onlyAdministrator {\r\n        delete owners[_ownerId];\r\n        TotalOwners();\r\n        requiredApprovals = ((requiredApprovalPercentage * totalOwners) / 100);\r\n    }\r\n\r\n    // Internal function that gets the total number of owners and multiplies by 10 to account for arithmetic float points\r\n    function TotalOwners() internal returns (uint) {\r\n        totalOwners = owners.length * 10;\r\n        return totalOwners;\r\n        \r\n    }\r\n\r\n    // Function used to set the required number of apporvals\r\n    // Function can only be called by the contract administrator\r\n    function setReuiredApproval (uint _requiredApprovalPercentage) private onlyAdministrator {\r\n        requiredApprovalPercentage = _requiredApprovalPercentage;\r\n        TotalOwners();\r\n        requiredApprovals = ((requiredApprovalPercentage * totalOwners) / 100);\r\n    }\r\n}\r\n\r\n",
  "sourcePath": "C:\\Users\\User\\Desktop\\Full stack\\Multiparty Solidity Wallet\\contracts\\Wallet.sol",
  "compiler": {
    "name": "solc",
    "version": "0.8.13+commit.abaa5c0e.Emscripten.clang"
  },
  "schemaVersion": "3.4.7",
  "updatedAt": "2022-06-29T14:18:01.647Z",
  "devdoc": {
    "kind": "dev",
    "methods": {},
    "version": 1
  },
  "userdoc": {
    "kind": "user",
    "methods": {},
    "version": 1
  }
}